:060000000A128A11EC2F28
:10000800080064008001840A040603190034040609
:100018000628F100711811281528831203130816F1
:1000280018288312031308127108F0000130031016
:10003800F00CFF3E031D1B28701823282728831265
:10004800031388162A288312031388127108F000F4
:1000580002300310F00CFF3E031D2D2870183528C0
:1000680039288312031308173C2883120313081333
:100078007108F00003300310F00CFF3E031D3F2809
:10008800701847284B288312031388174E288312A9
:10009800031388130800F901FA0176088400831312
:1000A800000884000A128A150A200A128A112A3ABC
:1000B800031D5F2860288C2876088400013080079B
:1000C800770884000008FF00023080077F0884005A
:1000D8000008F900840A0008FA009D287A08F1004F
:1000E8007908F0000A30F2000030F3000A128A158D
:1000F8005F260A128A1178087007F9000030031881
:1001080001307107FA0076088400013083138007F4
:1001180076088400000884000A128A150A200A1248
:100128008A11D03EF8000A307802031C9C289D28CA
:1001380072287A08F7007908F6000800F501F31F1D
:10014800A628A728AE28F209F309F20A0319F30A28
:100158000130F500F11FB128B228B728F009F109DC
:10016800F00A0319F10A700871040319BC28BD28A4
:10017800EA280130F400C92801300310F00DF10D10
:10018800FF3E031DC1280130F407F11FCC28CD28FC
:10019800C02871087302031DD32870087202031C5B
:1001A800D628D728DD287008F2027108031CF3034B
:1001B800F30201300310F10CF00CFF3E031DDE28A2
:1001C8000130F402031DE928EA28CD28750803192F
:1001D800EE28EF28F428F209F309F20A0319F30AC2
:1001E8007308F1007208F0000800F501F11FFD28FE
:1001F800FE280529F009F109F00A0319F10A01306E
:10020800F500F31F082909291029F209F309F20A50
:100218000319F30A0130F506F601F70170087104B5
:100228000319172918294D290130F4002429013010
:100238000310F00DF10DFF3E031D1C290130F407DA
:10024800F11F272928291B2901300310F60DF70D66
:10025800FF3E031D292971087302031D3529700803
:100268007202031C3829392940297008F2027108E2
:10027800031CF303F302761401300310F10CF00CA5
:10028800FF3E031D41290130F402031D4C294D296D
:10029800282975080319512952295729F609F709F8
:1002A800F60A0319F70A7708F1007608F000080043
:1002B8000310720D730DF9007908031D642965296F
:1002C8006E290030F3000030F2000030F1000030F9
:1002D800F000CF297008F4007108F5007208F600E4
:1002E8007308F7001F300310F70CF60CF50CF40C2C
:1002F800FF3E031D77297408F800F217FF30F00558
:10030800FF30F105FF30F2050030F3059630F902B1
:10031800F91F8F299029A8297908803A973E031850
:10032800962997299829652901300310F30CF20CB6
:10033800F10CF00CFF3E031D99290130F907031D4C
:10034800A629A7299829BF2920307902031CAD299D
:10035800AE29BA2965290130F4000310F00DF10D1A
:10036800F20DF30DF40BB1290130F9027908031DE0
:10037800BE29BF29AF2978080319C329C429CF2961
:10038800F009F109F209F309F00A0319F10A03194E
:10039800F20A0319F30A080083120313A101F31FD9
:1003A800D629D729E429F009F109F209F309F00A55
:1003B8000319F10A0319F20A0319F30A0130A1001B
:1003C800F71FE729E829F529F409F509F609F709D6
:1003D800F40A0319F50A0319F60A0319F70A013092
:1003E800A1060030A5000030A4000030A3000030B2
:1003F800A20073087204710470040319042A052A00
:10040800502A0130A000132A0130F8000310F00D23
:10041800F10DF20DF30DF80B0A2A0130A007F31FB6
:10042800162A172A082A0130F8000310A20DA30D76
:10043800A40DA50DF80B192A73087702031D2E2A9F
:1004480072087602031D2E2A71087502031D2E2AD2
:1004580070087402031C312A322A412A7008F402F7
:100468007108031C710FF5027208031C720FF60263
:100478007308031C730FF702221401300310F30CE6
:10048800F20CF10CF00CFF3E031D422A0130A002D1
:10049800031D4F2A502A172A21080319542A552ABE
:1004A800602AA209A309A409A509A20A0319A30A93
:1004B8000319A40A0319A50A2508F3002408F20061
:1004C8002308F1002208F0000800720873040319D9
:1004D8006E2A6F2A752A72087304031D742A752AF6
:1004E8007C2A70080A128A1104200A128A11022B27
:1004F8007208093EF40073080318013E003EF50037
:10050800740884008317751C83130008F600840A96
:100518000008F700760877040319932A942AC62A54
:100528007208093EF40073080318013E003EF50006
:10053800740884008317751C83130008F600840A66
:100548000008F7007208023EF80073080318013E1D
:10055800003EF900780884008317791C831300088B
:10056800FA00840A0008FB007B08803AFC00770840
:10057800803A7C02031DC22A76087A020318C52A2B
:10058800C62A022B720884008317731C8313000881
:10059800F400840A0008F5007208023EF6007308A9
:1005A8000318013E003EF700760884008317771C85
:1005B800831300087407F9007508F8000318F80A8F
:1005C800801FE72AF8037808FA007908840083175F
:1005D8007A1C8313700880007208023EF4007308C6
:1005E8000318013E003EF500740884008317751C4B
:1005F800831301308007840A0318800A080000303A
:100608007005F80000307105F90080307205FA00B5
:100618007F307305FB007B087A0479047804031D96
:10062800162B172B1F2B0030F3000030F200003080
:10063800F1000030F00000307405F8000030750556
:10064800F90080307605FA007F307705FB007B08DB
:100658007A0479047804031D322B332B3B2B0030AA
:10066800F7000030F6000030F5000030F400F31F0A
:100678003E2B3F2B632B0030F8000030F900003090
:10068800FA008030FB007008F8027108031C710F33
:100698004E2B4F2BF9027208031C720F542B552B4B
:1006A800FA027308031C730F5A2B5B2BFB027B089F
:1006B800F3007A08F2007908F1007808F000F71FD3
:1006C800662B672B8B2B0030F8000030F9000030C8
:1006D800FA008030FB007408F8027508031C750FD7
:1006E800762B772BF9027608031C760F7C2B7D2B53
:1006F800FA027708031C770F822B832BFB027B08F7
:10070800F7007A08F6007908F5007808F4008030D8
:10071800F3068030F70677087302031D9D2B7608D1
:100728007202031D9D2B75087102031D9D2B740811
:1007380070020318A02BA12BA32B0310A42B0314C6
:100748000800831203133D08840083130008840003
:100758000A128A150A200A128A11253A031DB52B96
:10076800B62B3D2C3D08840001308007E001E101F3
:100778000030E400FF30E200FF30E300C501DA2B6F
:10078800E4143D08840001308007DA2B0130C500ED
:10079800DA2B3D088400000884000A128A150A2012
:1007A8000A128A11303A0319C42BCA2B45080319B7
:1007B800DE2BDF2BCD2B3D08F6003E08F7000A1292
:1007C8008A114F200A128A11770883120313E10055
:1007D8007608E000E11FF12BF22BF82B6414E009F6
:1007E800E109E00A0319E10A3D08840083130008BF
:1007F800C600460884000A128A150A200A128A11BD
:10080800643A0319082C092C152C460884000A128E
:100818008A150A200A128A11693A031D142C152C0C
:10082800352C3E0884000008FF00023080077F084E
:1008380084000008C100840A0008C2003D08840042
:100848004608013E80003B08AF003C08B000420863
:10085800B2004108B1000A128A110D250A128A1144
:10086800562C831203133D0884000130831380073C
:10087800562C3D088400000884000A128A150A20B4
:100888000A128A11BF00C0013F08F0004008F100B9
:100898003B08F2003C08F3000A128A1169220A1286
:1008A8008A11352C080083120313AA002A08031999
:1008B8005E2C5F2C732CA91F622C632C732C2609C9
:1008C800AC002709AD002809AE002909AF00AC0A21
:1008D8000319AD0A0319AE0A0319AF0A7B2C2908BC
:1008E800AF002808AE002708AD002608AC0029088C
:1008F800280427042604031D822C832C8C2C00300A
:10090800A9000030A8000030A7000030A6000C2D78
:100918009630AB009A2C0130AB0701300310AF0CB6
:10092800AE0CAD0CAC0CFF3E031D922CFE302F0517
:10093800031D9F2CA02C8F2CBA2C0130AB07013043
:10094800AC07003003180130AD0700300318013040
:10095800AE07003003180130AF0701300310AF0CA9
:10096800AE0CAD0CAC0CFF3E031DB22CFF302F05B6
:10097800031DBF2CC02CA12CCC2C0130AB020130A4
:10098800F9000310AC0DAD0DAE0DAF0DF90BC52C74
:10099800AE1BCF2CD02CD62C02302B020318D52C12
:1009A800D62CC12C2B18D92CDA2CE22CFF30AC0514
:1009B800FF30AD057F30AE05FF30AF050310AB0C3F
:1009C8002B08F900FA01FB01FC0118300310F90D9E
:1009D800FA0DFB0DFC0DFF3E031DEA2C7908AC0453
:1009E8007A08AD047B08AE047C08AF042A08031912
:1009F800FE2CFF2C042DA91F022D032D042DAF174B
:100A08002F08A9002E08A8002D08A7002C08A6006A
:100A18000800013083120313B500B21B142D162DE4
:100A28000130172D0030B8006108B7006008B60023
:100A380038080319202D212D372DFF30B60703184C
:100A4800B70AFF30B7073808031D2B2D2C2D312D81
:100A58002B30B3000030B400352D2D30B3000030FA
:100A6800B4003308B8001F30B9000030BA0083164C
:100A78000313C1017E2DFF30B9070318BA0AFF30EE
:100A8800BA073908A23E84000A30F0000030F100AD
:100A98003208F3003108F2000A128A11A2200A1261
:100AA8008A117108F7007008F6000A128A15D9250C
:100AB8000A128A117608303E8313800083120313CA
:100AC800B501FF30B6070318B70AFF30B7070A3079
:100AD800F0000030F1003208F3003108F2000A1289
:100AE8008A11F9200A128A11710883120313B200BD
:100AF8007008B10083123A08803AFF0080307F0204
:100B0800031D882D01303902031C8B2D8C2DAC2D33
:100B18008312031331083204031D932D942D3F2DA6
:100B28003508031D982D992D3F2D3708803AFF0071
:100B380080307F02031DA22D01303602031CA52D33
:100B4800A62DAC2D83120313E418AB2DAC2D3F2D2D
:100B58008312031338080319B22DB32DBF2DFF30AC
:100B6800B9070318BA0AFF30BA073908A23E840049
:100B78003808831380002F08A8003008A900390816
:100B8800A23EAA003708AC003608AB000A128A1544
:100B9800AD270A128A1108000A128A15BC250A1202
:100BA8008A110A128A155B270A128A1100308312E9
:100BB8000313B3000030B2002530B1008030B0001C
:100BC8000A128A11BF260A128A11F401F40A0130A6
:100BD8000A128A1500260A128A110130F4008030A0
:100BE800F5000A128A1584260A128A111A3083120D
:100BF8000313DF005E30DE006D30DD00DD0B022EFA
:100C0800DE0B022EDF0B022E092E0A128A15C925C9
:100C18000A128A11013083160313D200003083129E
:100C280003130518013083160313D3005203031D61
:100C38001E2E1F2EB72E5308031D232E242EB72E2B
:100C4800A33083120313DE005430DD00DD0B2A2E9F
:100C5800DE0B2A2E0000831203130518342E352EBE
:100C6800A62E013083160313A0070318A10A00302B
:100C7800A1072108803AFF0080307F02031D462E1D
:100C880064302002031C492E4A2E502E0130831650
:100C98000313A0000030A100C23083120313CC005C
:100CA8001F30CD0083160313210883120313CF00CE
:100CB80083160313200883120313CE000A128A1521
:100CC8003C260A128A110A128A15C9250A128A11A3
:100CD800F401F40A01300A128A1500260A128A1150
:100CE8001030F4008030F5000A128A1584260A12A2
:100CF8008A11F401F40A02300A128A1500260A122F
:100D08008A11C230F4000030F5000A128A158426D0
:100D18000A128A112930F1008030F2000A128A156D
:100D2800AA260A128A11C230F1000030F2000A1213
:100D38008A15AA260A128A110A300A128A15B025BB
:100D48000A128A1183120313051CAB2EAC2EA62E91
:100D5800413083120313DE00ED30DD00DD0BB22ECF
:100D6800DE0BB22EB72E831603135308D200122EB1
:100D78000A128A1100288316031307138717831290
:100D880003133008B4003108B5003208B600330840
:100D9800B70006300310B40DB50DB60DB70DFF3E04
:100DA800031DCE2E0030B8002D30B9003130BA0006
:100DB8000130BB003408B8023508031C350FE52E96
:100DC800E62EB9023608031C360FEB2EEC2EBA02BB
:100DD8003708031C370FF12EF22EBB023B08F70031
:100DE8003A08F6003908F5003808F4003008BC0065
:100DF8003108BD003208BE003308BF0006300310BA
:100E0800BC0DBD0DBE0DBF0DFF3E031D032F3F08DA
:100E1800F3003E08F2003D08F1003C08F0000A1219
:100E28008A11D0210A128A11730883120313A900A8
:100E38007208A8007108A7007008A60001300A12FD
:100E48008A1157240A128A11831203132908C3002E
:100E58002808C2002708C1002608C0004308F3007C
:100E68004208F2004108F1004008F0004330F70062
:100E78008030F6000030F5000030F4000A128A11C4
:100E880003230A128A1103184A2F4B2F602F83124B
:100E980003134308F3004208F2004108F100400838
:100EA800F0000A128A115C210A128A11700883164E
:100EB800031399001811E12F831203133008B400AB
:100EC8003108B5003208B6003308B7000430031003
:100ED800B40DB50DB60DB70DFF3E031D6B2F0030D9
:100EE800B8002D30B9003130BA000130BB003408E9
:100EF800B8023508031C350F822F832FB902360834
:100F0800031C360F882F892FBA023708031C370FA6
:100F18008E2F8F2FBB023B08F7003A08F6003908DE
:100F2800F5003808F4003008BC003108BD0032086C
:100F3800BE003308BF0004300310BC0DBD0DBE0D4C
:100F4800BF0DFF3E031DA02F3F08F3003E08F2002F
:100F58003D08F1003C08F0000A128A11D0210A125B
:100F68008A11730883120313A9007208A800710874
:100F7800A7007008A60001300A128A1157240A1225
:100F88008A11831203132908C3002808C2002708FE
:100F9800C1002608C0004308F3004208F2004108D7
:100FA800F1004008F0000A128A115C210A128A1125
:100FB8007008831603139900181518128312031367
:100FC800981783160313981683120313181608002C
:100FD80083120313E001E101E201E301E401831359
:100FE800A0308400C2300A128A1105200A128A1120
:100FF80083010A128A11D02DFF1B0A2883137F1838
:1010080083170008840A0319FF0A080008308A00B9
:101018000408840A82070034433441344C344C3485
:1010280049344E34473420345334593453345434C7
:1010380045344D340034433461346C346C34693491
:101048006E34673420344E3475346D34623465340C
:10105800723400344E346F3477343A3420342534C3
:101068003034323464340034433441344C344C34F6
:041078003A340034D2
:101B6000F00083160313981CB62DB72DB12D700805
:101B70008312031399000800831603178801890153
:101B80008312031787018801831603130514880144
:101B9000080001300A128A15FB260A128A150D3038
:101BA000F500FB30F400F40BD32DF50BD32DD82D1D
:101BB0000800F71BDC2DDD2DDE2DE92D7609F80060
:101BC0007709F900F80A0319F90A7808F600790884
:101BD000F7000800F30083120313081073080A12B9
:101BE0008A110D200A128A158312031388144230B9
:101BF000F200F20BF92D0000831203138810080085
:101C0000F6007603031D052E062E092E74087F3E6E
:101C1000F50002307606031D0E2E0F2E122E7408CC
:101C2000BF3EF50075080A128A15FB260A128A15AE
:101C30000800831203134908CB002B2E4708BB0072
:101C40004808BC004B30BD004A08BE000A128A1189
:101C5000A5230A128A15831203134B0884000A1263
:101C60008A150A200A128A15003A031D382E392EC9
:101C70001E2EC701C80108004E3083120313D10085
:101C80004C08D2000030D300D401D501DB01DC01C7
:101C90005230C7000030C8004D08C9005130CA009A
:101CA0000A128A1519260A128A1583120313540878
:101CB0004C07D00050088400831380010800F40111
:101CC000F501701C642E652E6B2E7208F407031844
:101CD000F50A7308F50701300310F20DF30DFF3E0E
:101CE000031D6C2E01300310F10CF00CFF3E031DA0
:101CF000732E70087104031D7E2E7F2E612E7508D1
:101D0000F1007408F0000800992E7508FF007408AF
:101D100084000A128A1500200A128A150A128A15EE
:101D20002B270A128A150130F4070318F50A003030
:101D3000F507750883120313FF00740884000A1264
:101D40008A1500200A128A15003A031DA82EA92E12
:101D5000852E0800BF2E7208FF00710884000A1249
:101D60008A1500200A128A150A128A15B0250A124D
:101D70008A150130F1070318F20A0030F2077208E1
:101D800083120313FF00710884000A128A150020D1
:101D90000A128A15003A031DCE2ECF2EAB2E080054
:101DA00083120313A601A701ED2E2508A300A401A9
:101DB0002308F0002408F1002108F2002208F300B3
:101DC0000A128A1169220A128A150130831203133A
:101DD000A6070318A70A0030A70726082007A300B4
:101DE0002308840083130008A5002508031DF92E8D
:101DF000FA2ED52E0800F30083120313081073087F
:101E0000F20004300310F20CFF3E031D022F720893
:101E10000A128A110D200A128A15831203138814DC
:101E20004230F200F20B122F0000831203138810CD
:101E300073080F390A128A110D200A128A158312AB
:101E4000031388144230F200F20B242F0000831297
:101E5000031388100800F300831203130814730897
:101E6000F20004300310F20CFF3E031D322F720803
:101E70000A128A110D200A128A158312031388147C
:101E80004230F200F20B422F00008312031388103D
:101E900073080F390A128A110D200A128A1583124B
:101EA000031388144230F200F20B542F0000831207
:101EB00003138810080000300A128A110D200A123C
:101EC0008A158230F500DD30F400F40B652FF50B38
:101ED000652F6A2F03300A128A15EA250A128A151D
:101EE0002130F5007630F400F40B742FF50B742FCD
:101EF000000003300A128A15EA250A128A154830B2
:101F0000F5006C30F400F40B832FF50B832F0000E9
:101F100003300A128A15EA250A128A1502300A12BB
:101F20008A15EA250A128A1528300A128A15FB2614
:101F30000A128A150C300A128A15FB260A128A1513
:101F400006300A128A15FB260A128A1501300A1277
:101F50008A15FB260A128A15080083120313641CD3
:101F6000B22FB32FBE2F2A08A0002808A1002908ED
:101F7000A2000A128A15D0260A128A1583120313A8
:101F8000AC1FC32FC42FC62FAB01AC01AD01AE01F6
:101F9000E02F2030F0000030F100831203132808F6
:101FA000F2002908F3000A128A1169220A128A151E
:101FB000013083120313AD070318AE0A0030AE07D9
:101FC0002E08803AFD002C08803A7D02031DEA2F7E
:101FD0002B082D02031CED2FEE2FC92F83120313A4
:101FE0006418F32FF42FFF2F2A08A0002808A1005F
:101FF0002908A2000A128A15D0260A128A1508009A
:04400E00F22FFF3F4F
:00000001FF
