:100000000A128A11FC2F00308A000408840A820731
:1000100000344C344334443420342B3420345534AD
:100020004134523454342034443465346D346F34A4
:0200300000349A
:100DDE0001300A128A110B270A128A110800831297
:100DEE0003130C0EF000700C013908000A128A1160
:100DFE00F6260A128A11003A0319062F072FFD2E26
:100E0E00831203131A080800F2008312031308104A
:100E1E0088107208870008150D30F100FB30F000C5
:100E2E00F00B172FF10B172F1C2F83120313081122
:100E3E000800F2008312031308148810720887004A
:100E4E0008150D30F100FB30F000F00B2C2FF10BDC
:100E5E002C2F312F8312031308110800831603134E
:100E6E0018158316031787158130831603139900FF
:100E7E009A0183120313981783160313981683127D
:100E8E00031318160800F400730303194F2F502F85
:100E9E00552FC030F5000030F600592F8030F50088
:100EAE000030F6007508F7007408FF3EF707770864
:100EBE000A128A110B270A128A110800742F73085E
:100ECE0084000A128A1103200A128A110A128A1148
:100EDE0020270A128A110130F307730884000A12C0
:100EEE008A1103200A128A11003A031D7F2F802FC8
:100EFE00662F080083160313870188016230F40001
:100F0E006530F300F30B892FF40B892F8E2F3830B9
:100F1E000A128A110B270A128A110C300A128A1130
:100F2E000B270A128A1106300A128A110B270A128F
:100F3E008A1101300A128A110B270A128A1108002F
:100F4E008316031388010A128A1181270A128A1145
:100F5E000A128A1135270A128A110A128A11EF26ED
:100F6E000A128A11F301F30A01300A128A114A2772
:100F7E000A128A110130F3000A128A1165270A1229
:100F8E008A113330FA00BB30F900DF30F800F80B6D
:100F9E00CE2FF90BCE2FFA0BCE2FD52F0A128A1188
:100FAE00EF260A128A110A128A11F6260A128A11DD
:100FBE00003A0319E32FE42FDA2F0A128A11FD26C5
:100FCE000A128A11FB00F301F30A01300A128A1188
:100FDE004A270A128A117B080A128A1120270A123E
:100FEE008A11DA2F0A128A11002883010A128A1135
:020FFE00A72F1B
:00000001FF
