:02000000A02A34
:10000800FF00030E8301E8000A08E7008A017B0865
:10001800A2007C08A1007D08A0008B1C24280230C7
:10002800FB008630FC009930FD00FD0B1928FC0B05
:100038001928FB0B1928A30A0319A40AE6148B1024
:100048002208FB002108FC002008FD0067088A0040
:0A005800680E8300FF0E7F0E090002
:0E006200213083120313FD00FD0B352808002A
:0600700000000000080082
:100076000F3083120313FC004730FD00FD0B4128AF
:0A008600FC0B4128000000000800F8
:1000900083160313A71B4F2883128813512883123A
:1000A00088178316271B5728831208135928831291
:1000B00008178316A71A5F288312881261288312F3
:1000C00088168316271A6728831208126928831254
:1000D000081666186D2807156E2807118714382032
:1000E00087108316A719772883128813792883121B
:1000F0008817831627197F288312081381288312F3
:1001000008178316A7188728831288128928831254
:100110008816831627188F288312081291288312B5
:100120000816661895280715962807118714382091
:0E0130008710661C9D283B209E283120080069
:10013E0083120313F801F9011030FC00710DF80D54
:10014E00F90D7408F8027508031C750FF9020318EF
:10015E00B7287408F80775080318750FF907031008
:0A016E00F00DF10DFC0BA5280800B0
:10017800831603139818C2280000BC28220883128B
:0401880099000800D2
:10018C0083120313661083162208A70048206614F6
:02019C00080059
:10019E0083160313A501053025020318DD28250853
:1001AE002407840020308000A50AD22825082407C1
:1001BE0084008001A50325082407A6000A30F40058
:1001CE00F5012208F0002308F1009F207808F000C6
:1001DE007908F1003030F007831626088400700885
:1001EE0080000A30F400F5012208F0002308F10027
:1001FE009F2070088316A2007108A30000307106BC
:10020E00031D0B2900307006031D0E291029A503AE
:04021E00E2280800CA
:1002220083120313EA01EB016908F2006908F30083
:10023200720884000008203A031D24296A086B040E
:10024200031D242931290130EA000030EB00720835
:1002520084000008F0007308840070088000F30A2C
:100262007208F100F20A710884000008003A031DC6
:0802720019296908F0000800D9
:10027A0083120313EB01690884000008EA006A0884
:10028A00003A031953296A088316A200BC20EB0A14
:0E029A006B08690784000008EA004429080088
:1002A80083120313EE01EF0169088316A00083127D
:1002B8006A088316A100803083126A06F000803035
:1002C8007002031D69290030690203187A29013078
:1002D800EE000030EF006908003C8316A00083128E
:1002E8006A08031C013E8316A101A1028316200897
:1002F800A2002108A30083126B088316A400CF2054
:1003080006308312EC000030ED006D08003C031D40
:100318008F296C08003C0318AA296C086B07F200A7
:1003280001306C02F0000030031C013E6D02F10048
:1003380070086B0784000008F000720884007008D9
:1003480080000130EC02031CED0389296B0884004E
:10035800203080006E086F040319C829EC01ED01F4
:100368006C086B0784000008203A031DBF29EC0ABB
:100378000319ED0AB4290130EC02031CED036C08E3
:0A0388006B0784002D308000080090
:10039200DB29803083120313E900EE29C030E90023
:1003A200EE299430E900EE29D430E900EE298030BC
:1003B200E900EE29831203136908013A0319CA29D5
:1003C2006908023A0319CF296908033A0319D229A5
:1003D2006908043A0319D529D8296A03F000690883
:1003E200F0077008E90070088316A700482066101D
:1003F200EC016C086B07840000080319092A6C08D9
:100402006B07840000088316A200C620EC0AFA29B2
:040412006614080064
:0E041600831203135E088A005D08820008004E
:10042400831203132308E9002408EA005F30EB0079
:1004340054215F30E90011210230E9000D30EA0057
:100444005530EB00C9210230E9000D30EA005F307D
:10045400EB00C9214530E9003D215F30E9003D2131
:080464005A30E9003D210800B7
:10046C0083160313981690308312980083168717FF
:10047C00071383128C1E452A1A08F0003F2A080025
:10048C000B228A110A128000840ADD0A0319DE0A83
:08049C00F003031D462A0800CD
:1004A4008316031387100711081288120813881380
:1004B40083128710071188130813881208123B202F
:1004C4003B203B20881608168714382087103B20D1
:1004D4008714382087103B208714382087103B204E
:1004E40008128714382087103B208714382087107F
:1004F400881288178714382087103B208813081621
:1005040087143820871008128714382087103B205E
:1005140087143820871008168714382087103B204A
:1005240008128714382087108817081788160816A9
:0C0534008714382087103B206614080054
:1005400030230330831603138600831286018B1732
:100550000B1683160117522201308316A70048207C
:100560000C308316A70048203330831699001815E5
:1005700036220230FB000430FC00BA30FD00FD0BD7
:10058000BF2AFC0BBF2AFB0BBF2A00000130E90089
:100590000130EA002530EB00C9210230E9000130CA
:1005A000EA003730EB00C921E614E61CD92A1222F2
:1005B000E610861CEF2A0230FB008630FC009930E2
:1005C000FD00FD0BE12AFC0BE12AFB0BE12A861C56
:1005D000EF2AA301A401E614861CEF2AEC2AD52AEF
:0205E000F02AFF
:10066000233084003A3083120313F000F630DD00AB
:080670000230DE004622080002
:0405EC0000340034A3
:1005F0002034483445342034543448344F344E3455
:10060000473420344C3441345934203453344F343B
:04061000203400345E
:1006140053346F3420346834693465346E34203490
:0C0624007434613469343A3420340034FA
:1006300053346F3420347434683475342034743453
:10064000753420346D346F3469343A3420340034D6
:0A065000203420342034203400341C
:06065A000D340A340034E7
:02400E00022F7F
:00000001FF
